:100000000C945E000C947B000C947B000C947B00A1
:100010000C947B000C947B000C947B000C948A0065
:100020000C947B000C947B000C947B000C947B0064
:100030000C947B000C947B000C947B000C94D30BF1
:100040000C947B000C947B000C947B000C947B0044
:100050000C947B000C947B000C949B000C947B0014
:100060000C947B000C947B000C947B000C947B0024
:100070000C947B000C947B000C947B000C947B0014
:100080000C947B000C947B000C947B000C947B0004
:100090000C947B000C947B000C947B000C947B00F4
:1000A00000000004D4028701C7006400320000FC95
:1000B0000000D402B203EC03FB03FE0311241FBEB5
:1000C000CFEFCDBFDFE3DEBF18E2A0E0B8E2E1E2B0
:1000D000F2E202C005900D92AA35B107D9F729E2E4
:1000E000AAE5B8E201C01D92A139B207E1F70E946A
:1000F0003A040C94C8100C94000081E080935B28B3
:100100000895809186298823E1F31092862986E854
:1001100098E208951F920F920FB60F9211248F93B9
:1001200081E080930B0A809308068F910F900FBE99
:100130000F901F9018951F920F920FB60F921124D7
:100140002F933F934F935F936F937F938F939F93DF
:10015000AF93BF93EF93FF9380915B288823D1F1F6
:1001600080915A282091100630911106482F50E0B6
:10017000FA01EE0FFF1FEA57F74D2D593A4F220FA4
:10018000331F22953295307F3227207F32272083FC
:10019000318360910628709107284617570749F464
:1001A00091E09093862924ED30E32093260A309342
:1001B000270A811106C02FE030E02093260A3093F1
:1001C000270A8F5F90E06F5F7F4F0E94330C809310
:1001D0005A2809C08091100690911106893C18F0A8
:1001E00081E080935B28FF91EF91BF91AF919F9148
:1001F0008F917F916F915F914F913F912F910F90D0
:100200000FBE0F901F9018952F923F924F925F92C2
:100210006F927F928F929F92AF92BF92CF92DF9216
:10022000EF92FF920F931F93CF93DF93CDB7DEB77B
:10023000E497CDBFDEBF89A39AA3E9A1E9ABFAA1F8
:10024000FAABFC0120E030E040E050E02417350735
:1002500084F0D901AA0FBB1F89A19AA1A80FB91FC9
:100260008D919C911197608171816D937C938083B6
:100270009183203431056CF080E490E0281B390B29
:10028000959587952817390734F018161906B4F391
:1002900002C080E490E0280F391F4F5F5F4F329615
:1002A0004038510599F6EEEAF0E0EDA7FEA7E0EA46
:1002B000F0E0EFA7F8ABE1E0F0E0EDA3FEA3EDA1E5
:1002C000FEA1EE0FFF1FEBA7FCA7ED87FE87EDA5B4
:1002D000FEA565917591EDA7FEA7EFA5F8A925915B
:1002E0003591EFA7F8AB6BA47CA4660C771CA9A191
:1002F000BAA1EBA5FCA5AE0FBF1FE9A9FAA940E082
:1003000050E00D851E8529833A83ED90FC9011976E
:10031000208131812E193F09359527952D933C93E6
:100320001197808191818E0D9F1D95958795808372
:100330009183400F511FA60DB71DE60DF71D4038E4
:1003400051051CF3EDA1FEA1E330F10508F4BEC197
:10035000F695E795EBA3FCA3329708F4B7C19B0190
:10036000770F440B550B2D8B3E8B4F8B588F89810C
:100370009A81092E000CAA0BBB0B898F9A8FAB8F29
:10038000BC8F8BA59CA50297E9A1FAA1E80FF91FE4
:10039000EFA3F8A7EBA5FCA5ED8FFE8F298D3A8D75
:1003A0004B8D5C8D2D833E834F8358878D899E892D
:1003B000AF89B88D89879A87AB87BC87EBA1FCA1F1
:1003C000EF8FF8A33196E9A7FAA7E9A1FAA132962F
:1003D000E98BFA8BEFA1F8A5EB8BFC8BE1E0F0E069
:1003E000EF87F88B5AC1D5012D903C90032C000C5F
:1003F00044085508D801CD90DC900D2C000CEE0877
:10040000FF08A201910169857A858B859C850E94F0
:10041000230C69837A838B839C83A70196016D816A
:100420007E818F8198850E94230C29813A814B819E
:100430005C81260F371F481F591F012E1BE0559561
:100440004795379527951A95D1F7102D29833A832B
:100450004B835C83ABA9BCA98D919C9195958795A5
:10046000821B930BD5018D939C93A20191016D8109
:100470007E818F8198850E94230C1B012C01A7018E
:10048000960169857A858B859C850E94230CA20143
:100490009101261B370B480B590B69017A010B2E72
:1004A000BBE0F594E794D794C794BA95D1F7B02DF3
:1004B00080819181959587958C199D09D8018D939F
:1004C0009C93ABA9BCA96D917C911197759567958B
:1004D00029813A81620F731F6D937C9311978081FC
:1004E0009181959587951C012C0C3D1C20823182B1
:1004F0004D855E85840E951EA60CB71C060D171D36
:10050000A60DB71DABABBCABE60DF71D51E88516CC
:1005100091040CF468CF2D893E894F89588D6985E7
:100520007A858B859C850E94230C6B017C01298D2B
:100530003A8D4B8D5C8D6D817E818F8198850E9477
:10054000230CC61AD70AE80AF90A0B2EBAE0F5946A
:10055000E794D794C794BA95D1F7B02D2D893E89E9
:100560004F89588D6D817E818F8198850E94230CE3
:100570004B015C01298D3A8D4B8D5C8D69857A85A7
:100580008B859C850E94230CDC01CB01880D991D75
:10059000AA1DBB1D9C01AD01012E1AE05595479582
:1005A000379527951A95D1F7102D2D833E834F83CC
:1005B0005887EF85F8893196EF87F88BE989FA89B2
:1005C0003296E98BFA8BEB89FC893297EB8BFC8BAB
:1005D000EF8DF8A12F853889E217F30709F059C08C
:1005E0002D893E894F89588DC701B6010E94230C81
:1005F0004B015C01298D3A8D4B8D5C8D6D817E8127
:100600008F8198850E94230C861A970AA80AB90A36
:10061000D501C401072E7AE0B595A79597958795E2
:100620007A95D1F7702D89879A87AB87BC872D89FA
:100630003E894F89588D6D817E818F8198850E947A
:10064000230C4B015C01298D3A8D4B8D5C8DC701CC
:10065000B6010E94230CDC01CB01880D991DAA1D57
:10066000BB1D9C01AD01012E1AE0559547953795AC
:1006700027951A95D1F7102D2D833E834F835887E8
:10068000E9A5FAA52BA13CA1E217F30708F49DCE3A
:100690001DC0C986DA86EB86FC86EF85F889E138CD
:1006A000F1050CF038CFA988BA88ED8DFE8DAE0E1D
:1006B000BF1E0B891C890E0F1F1FEB89FC8929891E
:1006C0003A898F8498882BAB3CAB8DCEEDA1FEA1EF
:1006D000E230F105B8F1F695E795AF01E038F105A4
:1006E0008CF5ADA1BEA1AE0FBF1FAA0FBB1F29A1E4
:1006F0003AA1A20FB31FEE0FFF1FE20FF31F6D858C
:100700007E858D919C91119789839A832081318177
:10071000281B390B359527952D933C931197808194
:10072000918129813A81820F931F959587958083C6
:100730009183460F571FA60DB71DE60DF71D4038D4
:100740005105FCF2EBA5FCA5EDA3FEA32CEB30E0DC
:10075000EDA5FEA52E173F0709F0B1CDE496CDBF5C
:10076000DEBFDF91CF911F910F91FF90EF90DF904F
:10077000CF90BF90AF909F908F907F906F905F9041
:100780004F903F902F900895CF93DF93FC013296C6
:10079000DC01B39591E080E060E070E0EF01208142
:1007A000318133231CF4319521953109A9013E9102
:1007B0002E9133231CF431952195310924173507E7
:1007C00028F436952795240F351F04C05695479574
:1007D000240F351F213044E0340760F0288339832B
:1007E0006217730710F4892FB9019F5F3296903416
:1007F000A9F603C018821982F8CFDF91CF9108952E
:10080000E0E0FAE081E082878FE090E086A397A3A2
:100810008BE080830895E0E0F6E083E4828382E069
:10082000868383E1858381E08287808394E090934F
:10083000720490E29093A00082870895E0EAF4E0C9
:1008400080818062808308950E94FC090E940004D8
:1008500085E08093800A0E940B040E941E0460E0E1
:1008600070E08BE19CE00E94680C80E00E948808A8
:1008700078940895CF93DF93CDB7DEB7C555D140B7
:10088000CDBFDEBF0E942404FE01319680E7DF0168
:100890001D928A95E9F78FEF8983E2968FAFE297F1
:1008A000CE018F589F4F0E94E6057C010E947D007B
:1008B0000E9481000E94D104898344244394CE0184
:1008C00001964C010F2EF4E9AF2EF1E6BF2EF02D6C
:1008D0000F2EFBEACF2EF1E6DF2EF02D582E092D3C
:1008E00001C0412CE114F10409F445C061E070E05D
:1008F00011E0AE014F585F4FCE018C519F4F0E94C7
:10090000940582E7FE01EC51FF4FDE01AE58BF4F68
:1009100001900D928A95E1F7BE016E587F4F852DAB
:10092000902F0E9443053C01CE51DF4F8881998171
:10093000C25ED04068167906BCF01F921F93BF922A
:10094000AF920E94B30C7F926F92DF92CF920E947F
:10095000B30C40E750E06FEF70E0852D902F0E94C0
:10096000610CCDBFDEBF412C1F5F612F70E0E6162A
:10097000F70608F0BECFCE018F589F4F0E94E605C4
:100980007C010E947D000E9481000E94D104F4013C
:10099000E40DF11D80834394BFE6B41508F4A1CFA4
:1009A000A1CFCF93DF93EC010E940401CE010E94FE
:1009B000C403DF91CF910895AF92BF92CF92DF929F
:1009C000FF920F931F93CF93DF93EB012881FC01DC
:1009D000F22E80E0A22E022E000CBB08922FDB012B
:1009E00014962191022E000C330B2F193109F7FCBC
:1009F0003395A901332324F444275527421B530B75
:100A0000411132C09F0121503109E9012881022E94
:100A1000000C330B2A193B09A90122F4442755275E
:100A2000421B530B41111FC0AB014F5F5F4F8F0142
:100A3000EA01D990AE01FD2CE80129918E01022E28
:100A4000000C330B2D193109D7FC33956901332381
:100A500024F4CC24DD24C21AD30AC11005C04A17DD
:100A60005B0731F706C0F92E8F5F803709F0B9CFE9
:100A700080E0DF91CF911F910F91FF90DF90CF9099
:100A8000BF90AF900895FF920F931F93CF93DF9382
:100A9000EC01062F172F0E94DC04E02FF12F0F2E00
:100AA000F1E7FF2EF02DF80E91E0980F00E010E036
:100AB0002191722F903718F080E9890F01C0892F9A
:100AC000DE01A80FB11D6C91462F062E000C550BB0
:100AD000421B510927FD53959A01552324F42227DF
:100AE0003327241B350B711112C0662331F012C05D
:100AF0000E5F1F4F02C0025011099F5F9F11D8CF98
:100B0000013E81EB18074CF400EE11EB06C02223E6
:100B100079F3F1CF2111F1CFEBCFC801DF91CF9164
:100B20001F910F91FF900895EF92FF920F931F93E3
:100B3000CF93DF93CDB7DEB7C257D240CDBFDEBF74
:100B40008C01CB017A0140E0BE016D587F4F0E94BD
:100B50004608F7018083FE01ED58FF4FDE01119634
:100B60009E012D513F4F81918D93E217F307D9F7E5
:100B7000E8E0F8E28081A3E7B0E0AC0FBD1FA80F6A
:100B8000B11D8C9190E0982F88272181E3E7F0E058
:100B9000EC0FFD1FE20FF11D2081822BE3968EAF3B
:100BA0009FAFE39782E7FE013196D80101900D9245
:100BB0008A95E1F7C801CE58DD4FCDBFDEBFDF918A
:100BC000CF911F910F91FF90EF9008950F931F9376
:100BD000CF93DF93CDB7DEB7D250CDBFDEBF8C0150
:100BE00080915C2840E0BE016F5F7F4F90E00E94E3
:100BF0004608F8018083EAE0F8E28081A1E0B0E0F5
:100C0000AC0FBD1FA80FB11D8C9190E0982F8827C5
:100C10002181E1E0F0E0EC0FFD1FE20FF11D2081EA
:100C2000822BDE5FCDBFDEBFDF91CF911F910F9191
:100C30000895EF92FF921F93CF93DF9300D0CDB72B
:100C4000DEB77C0115E08AE298E20E94080862E0C3
:100C500070E0CE0101960E94F10762E0CE0101969C
:100C60000E940609813021F0115069F7F7011082C6
:100C70000F900F90DF91CF911F91FF90EF9008950B
:100C8000EF92FF921F93CF93DF93CDB7DEB72597F7
:100C9000CDBFDEBF7C0115E084E298E20E94080827
:100CA00065E070E0CE0101960E94F10765E0CE019B
:100CB00001960E940609882329F0115069F791E0F6
:100CC000F70190832596CDBFDEBFDF91CF911F91B5
:100CD000FF90EF900895EF92FF921F93CF93DF93D1
:100CE000CDB7DEB72A97CDBFDEBF7C0115E08EE120
:100CF00098E20E9408086AE070E0CE0101960E9426
:100D0000F1076AE0CE0101960E943409FC0190814E
:100D1000913021F482E080935F280BC0953021F45C
:100D200081E080935F2805C0115009F788E0D70162
:100D30008C93CF012A96CDBFDEBFDF91CF911F915B
:100D4000FF90EF900895EF92FF921F93CF93DF9360
:100D5000CDB7DEB72F97CDBFDEBF7A01AE014A5FB8
:100D60005F4F0E94960980E58A878E818B878F81ED
:100D70008C8788858D8789858E871F8615E0CE01B3
:100D80000A960E94080865E070E0CE0101960E9474
:100D9000F10765E0CE0101960E940609882329F03B
:100DA000115069F790E1F70190832F96CDBFDEBF18
:100DB000DF91CF911F91FF90EF900895AF92BF9276
:100DC000CF92DF92EF92FF920F931F93CF93DF9317
:100DD000CDB7DEB72C97CDBFDEBF7A0159016801D0
:100DE0002FEF3FEF29833A83AE014D5F5F4F0E94A3
:100DF000960981E58F838B8188878C8189878D8196
:100E00008A878E818B871C8684E690E00E941B086F
:100E1000CE0107960E94080810915E281F5F10936C
:100E20005E280E94ED0789838981882321F01B3089
:100E300098F310E001C010E080915D288F5F8093EF
:100E40005D280E94ED07898389818E3F79F4B60180
:100E5000C7010E94F1070E94ED07898389818823D9
:100E6000D1F38AE090E00E941B0817C089818F3F70
:100E700019F38981882301F304C081E1F50180839E
:100E80000CC01630D0F71F5F84E690E00E941B086C
:100E9000CE0107960E940808CFCF2C96CDBFDEBFAB
:100EA000DF91CF911F910F91FF90EF90DF90CF9046
:100EB000BF90AF900895EF92FF921F93CF93DF936F
:100EC000CDB7DEB72597CDBFDEBF7C0115E088E149
:100ED00098E20E94080865E070E0CE0101960E9449
:100EE000F10765E0CE0101960E940609813029F0E4
:100EF000115069F797E3F70190832596CDBFDEBFC8
:100F0000DF91CF911F91FF90EF900895EF92FF92A4
:100F10000F931F93CF93DF93CDB7DEB72597CDBF48
:100F2000DEBF7C010E945B0700E010E00F5F1F4FF7
:100F30008CE098E20E94080865E070E0CE0101961E
:100F40000E94F10765E0CE0101960E940609882300
:100F500049F0003283E0180749F789E2F7018083FE
:100F60008FEF04C000321340C1F380E02596CDBF5F
:100F7000DEBFDF91CF911F910F91FF90EF90089509
:100F8000EF92FF921F93CF93DF93CDB7DEB72A97EF
:100F9000CDBFDEBF7C0115E082E198E20E94080827
:100FA0006AE070E0CE0101960E94F1076AE0CE018E
:100FB00001960E947609FC012081222329F011501C
:100FC00059F72AE3F70120832A96CDBFDEBFDF91D0
:100FD000CF911F91FF90EF9008958FEF0E94030C27
:100FE00008950F931F93CF93DF936115710559F007
:100FF0008C01EC01060F171F8FEF0E94030C8993E1
:10100000C017D107C9F7DF91CF911F910F910895B4
:101010000F931F93CF93DF93EC018C010A5F1F4F57
:1010200089910E94030CC017D107D1F7DF91CF91AE
:101030001F910F9108950F931F93CF93DF93009704
:1010400051F08C01C0E0D0E08FEF0E94030C21969C
:101050000C171D07C9F7DF91CF911F910F910895CC
:10106000E0E4F4E08081806480838481148281E004
:10107000809360280895E0E4F4E0808180648083B8
:10108000848180648483109260280895DF92EF92B7
:10109000FF920F931F93CF93DF93EC017B01D42E2C
:1010A0008FEF809330280E943008CE01A0E0B0E09E
:1010B000BC01CD01052E59E0660F771F881F991FCF
:1010C0005A95D1F7502D00E012E020E338E2A70155
:1010D0000E94DE06809130288F3F71F041E04D0D77
:1010E0004A3040F48FEF80933028B701CE010E9440
:1010F000460802C00E9479090E943B08809130286E
:10110000DF91CF911F910F91FF90EF90DF900895A5
:10111000CF93C82F8FEF809330280E943B0886E43E
:1011200090E00E941B080E94300880E398E20E9431
:10113000190680E398E20E946B06FC01238130E0EF
:10114000322F22278481282B2A3A3140D1F480E3A0
:1011500098E20E9486078F3F19F489E28093302835
:1011600080E398E20E94C007FC01848181FD2EC0CB
:1011700040E358E260E072E080E090E00E94A30665
:1011800025C0908181E0953009F080E0811106C092
:1011900081E09F3F09F080E08823A9F080E398E296
:1011A0000E9486078F3F31F48093302880E398E2D5
:1011B0000E94400640E358E260E072E080E090E088
:1011C0000E94A30603C088E0809330280E943B0859
:1011D000909130289F3F71F081E08C0F853030F482
:1011E0009FEF909330280E94880804C0892F0E94A6
:1011F0007909FFCFE0ECF8E08081897F80838081EE
:101200008061808380913028CF910895DC0166232E
:1012100049F1FC0120E030E0A90191919F3FE1F00C
:10122000992334F420E0990F2F5F9923E4F301C050
:1012300020E0FD01E40FF51F418150E068E070E01F
:10124000FB01E21BF109BA0102C075956795EA95A9
:10125000E2F7892F862B08952F5F3F4F2617E0F284
:101260008FEF08958FEF08951F93CF93DF93AC0115
:101270006623B1F1FC0120E091919F3F01F1992398
:1012800014F510E0990F1F5F9923E4F31DC09191AD
:10129000208130E0A901062E02C0559547950A9499
:1012A000E2F7292F30E0012E02C0220F331F0A94EB
:1012B000E2F7242B2D93AC17BD0749F711C02F5F20
:1012C0006213DACF0DC010E0FA01E20FF11DA1E3C5
:1012D000B8E2C6E3D8E268E070E0611B7109D7CFDD
:1012E00081E398E2DF91CF911F9108950E94340924
:1012F0000895CF93C82F81EC91E69F938F930E941E
:10130000B30C1F92CF938AEC91E69F938F930E9428
:10131000B30C89ED91E69F938F930E94B30C8DB728
:101320009EB708968DBF9EBFCF910895FA01908316
:10133000818372836383089581E08093000680E057
:10134000089580E0089541E068ED81E690E00E9414
:10135000F70B80E0089580E00895E0E1F4E08081FB
:1013600088608193E83184E0F807C9F7E0E3F4E0AE
:10137000808188608193E83384E0F807C9F7E0E56D
:10138000F4E0808188608193E83584E0F807C9F74C
:10139000E0E7F4E0808188608193E83784E0F80733
:1013A000C9F7E0E9F4E0808188608193E83984E05E
:1013B000F807C9F7E0EBF4E0808188608193E83BAF
:1013C00084E0F807C9F708952198E1E3F4E080810B
:1013D000877F80832898209A0E94110C0895059891
:1013E000E5E1F4E08081877F80830C98049A0E9871
:1013F000069A0E94FD0B08950E94AD090E94A30960
:101400000E949C090E94E4090E94EF090E94AB0916
:101410000E94FB0B0E94CC0B0E94A1090895E0EAF8
:10142000F8E0848188608483858181608583E1E63A
:10143000F8E280818E7F808313868EE00895E1E656
:10144000F8E280818E7F8083138680E00895E1E654
:10145000F8E28081886080838181880F8160809339
:10146000A70884E008950E94270A08950E94270A89
:101470000895E1E6F8E28081886080838181880FA9
:101480008093A70883E008950E94390A0895E0EA4E
:10149000F8E084818B7F848384E00895E0EAF8E0BB
:1014A00084818B7F848383E00895E0EAF8E084817F
:1014B0008460848388E00895E0EAF8E084818860AD
:1014C0008483858181608583E1E6F8E280818E7F77
:1014D000808382E083878EE00895CF93DF93E0EAF4
:1014E000F8E08581806C85838091612883FF07C047
:1014F0008091A50884FF03C08FE080936B288091C2
:10150000A50883FF03C080E180936B288091A50824
:1015100082FF03C081E180936B28C1E6D8E2EA85AF
:10152000F0E0EE0FFF1FEA5CF74D0190F081E02D37
:1015300009958A87DF91CF910895E0EAF8E08581E7
:1015400088608583A1E6B8E282E01B968C931B97A6
:101550001E96ED91FC911F975A968D919C915B97E9
:101560000995823019F0833021F006C00E94270AC5
:1015700008950E94390A08950E940F0A0895E0EA2A
:10158000F8E0848184608483848183608483E1E6DD
:10159000F8E280818E7F8083138680E00895CF9368
:1015A000DF93E1E6F8E28081877F80838481958103
:1015B000019731F4E0EAF8E084818460848305C017
:1015C000E0EAF8E084818B7F8483E1E6F8E28481BD
:1015D0009581019784839583892BA9F0DF01C281CE
:1015E000D381E0EAF8E08085888312968D919C9102
:1015F0001397019612968D939C9313978481826022
:10160000848384E026C0A1E6B8E21296ED91FC91B5
:1016100013978091A808808312968D919C911397BF
:10162000019612968D939C9313978C9184608C9362
:101630001C96ED91FC911D9758968D919C91599710
:1016400009958250823018F40E94550A02C00E9407
:10165000BF0ADF91CF910895E0EAF8E084818360CA
:101660008483E1E6F8E280818E7F8083138680E0C8
:101670000895A1E6B8E28C91877F8C9382E01B9657
:101680008C931B975096ED91FC9151975C968D91A0
:101690009C915D970995823019F0833021F006C046
:1016A0000E94270A08950E94390A08950E942C0B6F
:1016B00008958091A50884FF19C0A1E6B8E252966A
:1016C000ED91FC9153975E968D919C915F97099552
:1016D000823019F0833021F006C00E94270A089555
:1016E0000E94390A08950E942C0B0895E1E6F8E261
:1016F0008081877F8083A281B381CD01019682831F
:1017000093838C918093A808848195810197848329
:101710009583892B11F485E0089583E008958091E5
:10172000A50884FF19C0A1E6B8E25296ED91FC919C
:1017300053975E968D919C915F970995823019F031
:10174000833021F006C00E94270A08950E94390ABA
:1017500008950E942C0B0895A1E6B8E28C91846054
:101760008C931C96ED91FC911D9758968D919C91B0
:1017700059970995833039F0843041F0823049F42B
:101780000E94270A08950E94390A08950E94590B61
:1017900008950E942C0B0895E0EAF8E083E2868326
:1017A00081EC838308951F920F920FB60F9211243C
:1017B0002F933F934F935F936F937F938F939F9359
:1017C000AF93BF93EF93FF930E946D0AFF91EF9148
:1017D000BF91AF919F918F917F916F915F914F9149
:1017E0003F912F910F900FBE0F901F901895FC0105
:1017F00064BF4083089580E0089585E28093C00827
:10180000109285280895909185289230F1F3809365
:10181000C408E0ECF8E083818823ECF78091C408E9
:101820000895E0E6F8E086E191E08087918780EC1A
:10183000868380E00895E0E6F8E0948195FFFDCF8F
:10184000809362080895DB018F939F930E94470C59
:10185000BF91AF91A29F800D911DA39F900DB29F4C
:10186000900D11240895AA1BBB1B51E107C0AA1FAC
:10187000BB1FA617B70710F0A61BB70B881F991F31
:101880005A95A9F780959095BC01CD0108950E94C5
:10189000520CA59F900DB49F900DA49F800D911D9B
:1018A00011240895A29FB001B39FC001A39F700DA2
:1018B000811D1124911DB29F700D811D1124911D58
:1018C0000895DC0101C06D9341505040E0F7089548
:1018D0000F931F93CF93DF93009731F46115710538
:1018E00019F480E090E03AC08B01EC016EE070E00A
:1018F00081E090E00E94AA0EFC01892B91F380E820
:1019000083830115110571F00287138781E88383B2
:101910008091872990918829892B21F4E093872948
:10192000F09388292097C9F0C087D187838182608E
:1019300083838091892990918A29892B71F4E0937E
:101940008929F0938A2980918B2990918C29892B60
:1019500021F4E0938B29F0938C29CF01DF91CF9173
:101960001F910F910895A0E0B0E0E9EBFCE00C942A
:10197000A710AE014B5F5F4FFA0161917191AF010A
:101980008091892990918A290E94C90CE2E00C94E7
:10199000C010ABE0B0E0EFECFCE00C9497106C01F1
:1019A0007B018A01FC0116821782838181FFCCC1F1
:1019B000CE0101963C01F6019381F70193FD8591DB
:1019C00093FF81917F01882309F4BAC1853239F4EC
:1019D00093FD859193FF81917F01853229F4B601B2
:1019E00090E00E94FD0FE7CF912C212C312CFFE1DC
:1019F000F315D8F08B3279F038F4803279F08332F5
:101A0000A1F4232D20611DC08D3261F0803369F473
:101A1000232D216016C0832D8260382EE32DE460D3
:101A20003E2E2AC0F32DF8601DC037FC2DC020EDDE
:101A3000280F2A3040F08E32B9F436FC81C1232DB4
:101A40002064322E19C036FE06C08AE0989E200D12
:101A50001124922E11C0EAE02E9E200D1124222E78
:101A6000F32DF0623F2E08C08C3621F4832D806860
:101A7000382E02C0883641F4F70193FD859193FF1B
:101A800081917F018111B3CF982F9F7D9554933021
:101A900028F40C5F1F4F9FE399830DC0833631F00C
:101AA000833771F0833509F059C021C0F801808176
:101AB00089830E5F1F4F88248394912C530113C098
:101AC0002801F2E04F0E511CF801A080B18036FED3
:101AD00003C0692D70E002C06FEF7FEFC5010E9467
:101AE000F20F4C018201F32DFF773F2E16C0280123
:101AF00022E0420E511CF801A080B18036FE03C0E6
:101B0000692D70E002C06FEF7FEFC5010E94E70F03
:101B10004C01F32DF0683F2E820133FC1BC0822D57
:101B200090E088169906B0F4B60180E290E00E9439
:101B3000FD0F2A94F4CFF50137FC859137FE819192
:101B40005F01B60190E00E94FD0F21102A9421E070
:101B5000821A91088114910471F7E8C0843611F05B
:101B6000893641F5F80137FE07C0608171818281B5
:101B700093810C5F1F4F08C060817181072E000C9C
:101B8000880B990B0E5F1F4FF32DFF763F2E97FFAB
:101B900009C090958095709561957F4F8F4F9F4FAD
:101BA000F0683F2E2AE030E0A3010E943910882E11
:101BB000861845C0853731F4232D2F7EB22E2AE0BA
:101BC00030E025C0932D997FB92E8F36C1F018F4DF
:101BD000883579F0B5C0803719F0883721F0B0C06A
:101BE000E92FE061BE2EB4FE0DC0FB2DF460BF2EC8
:101BF00009C034FE0AC0292F2660B22E06C028E094
:101C000030E005C020E130E002C020E132E0F80120
:101C1000B7FE07C060817181828193810C5F1F4F85
:101C200006C06081718180E090E00E5F1F4FA301CC
:101C30000E943910882E8618FB2DFF773F2E36FE26
:101C40000DC0232D2E7FA22E891458F434FE0BC014
:101C500032FC09C0832D8E7EA82E05C0B82CA32C83
:101C600003C0B82C01C0B92CA4FE0FC0FE01E80DC2
:101C7000F11D8081803321F49A2D997EA92E09C00F
:101C8000A2FE06C0B394B39404C08A2D867809F0EE
:101C9000B394A3FC11C0A0FE06C0B21488F4280CB3
:101CA000922C9B180EC0B21460F4B60180E290E052
:101CB0000E94FD0FB394F7CFB21418F42B1802C092
:101CC000982C212CA4FE10C0B60180E390E00E9465
:101CD000FD0FA2FE17C0A1FC03C088E790E002C080
:101CE00088E590E0B6010CC08A2D867859F0A1FEF7
:101CF00002C08BE201C080E2A7FC8DE2B60190E059
:101D00000E94FD0F891438F4B60180E390E00E9430
:101D1000FD0F9A94F7CF8A94F301E80DF11D8081AD
:101D2000B60190E00E94FD0F8110F5CF222009F44A
:101D300042CEB60180E290E00E94FD0F2A94F6CFD9
:101D4000F6018681978102C08FEF9FEF2B96E2E12B
:101D50000C94B0100F931F93CF93DF93869F800155
:101D6000879F100D969F100D1124C8010E94C60E6A
:101D7000EC01009729F0A80160E070E00E94610C7E
:101D8000CE01DF91CF911F910F9108950F931F9373
:101D9000CF93DF938230910510F482E090E0E091E0
:101DA0008F29F091902920E030E0A0E0B0E030975A
:101DB00019F1408151810281138148175907C8F0F8
:101DC0008417950769F4109731F012960C931297C7
:101DD00013961C9327C000938F291093902922C03B
:101DE0002115310519F04217530718F49A01BD0166
:101DF000EF01DF01F801DBCF21153105F9F0281BD8
:101E0000390B2430310580F48A819B81611571057D
:101E100021F0FB018283938304C080938F299093E8
:101E20009029FE01329644C0FE01E20FF31F819318
:101E3000919322503109288339833AC020918D290A
:101E400030918E29232B41F42091022830910328D0
:101E500020938D2930938E292091002830910128DC
:101E60002115310541F42DB73EB74091042850911A
:101E70000528241B350BE0918D29F0918E29E2175E
:101E8000F307A0F42E1B3F0B2817390778F0AC019D
:101E90004E5F5F4F2417350748F04E0F5F1F40938A
:101EA0008D2950938E298193919302C0E0E0F0E058
:101EB000CF01DF91CF911F910F910895CF93DF93C1
:101EC000009709F481C0FC01329712821382A0911D
:101ED0008F29B0919029109781F420813181820F50
:101EE000931F20918D2930918E292817390751F59C
:101EF000E0938D29F0938E2967C0ED0120E030E05A
:101F0000CE17DF0740F44A815B819E0141155105E0
:101F1000F1F0EA01F5CFC283D38340815181840F70
:101F2000951FC817D90759F488819981840F951F87
:101F30000296808391838A819B818283938321157A
:101F4000310529F4E0938F29F09390293DC0E901F0
:101F5000EA83FB8349915991C40FD51FEC17FD0704
:101F600061F480819181840F951F0296E901888335
:101F70009983828193818A839B83E0E0F0E01296CB
:101F80008D919C911397009719F0FD01DC01F7CF1B
:101F90008D919C9111979D012E5F3F4F820F931F52
:101FA00020918D2930918E292817390769F43097AF
:101FB00029F410928F291092902902C01282138264
:101FC000A0938D29B0938E29DF91CF910895FC01C4
:101FD0000590615070400110D8F7809590958E0F54
:101FE0009F1F0895FC016150704001900110D8F7C7
:101FF000809590958E0F9F1F08950F931F93CF93F9
:10200000DF93FB01238121FD03C08FEF9FEF2CC0E5
:1020100022FF16C04681578124813581421753071C
:1020200044F4A081B1819D012F5F3F4F2083318314
:102030008C93268137812F5F3F4F2683378314C0CF
:102040008B01EC01FB010084F185E02D0995892BC2
:10205000E1F6D80116968D919C91179701961696E8
:102060008D939C931797CE01DF91CF911F910F9184
:102070000895FA01AA27283051F1203181F1E8941E
:102080006F936E7F6E5F7F4F8F4F9F4FAF4FB1E06B
:102090003ED0B4E03CD0670F781F891F9A1FA11D66
:1020A000680F791F8A1F911DA11D6A0F711D811D67
:1020B000911DA11D20D009F468943F912AE0269F2C
:1020C00011243019305D3193DEF6CF010895462F8B
:1020D0004770405D4193B3E00FD0C9F7F6CF462F6C
:1020E0004F70405D4A3318F0495D31FD40524193D5
:1020F00002D0A9F7EACFB4E0A69597958795779592
:102100006795BA95C9F700976105710508959B0118
:10211000AC010A2E06945795479537952795BA95A1
:10212000C9F7620F731F841F951FA01D08952F927A
:102130003F924F925F926F927F928F929F92AF9257
:10214000BF92CF92DF92EF92FF920F931F93CF93A4
:10215000DF93CDB7DEB7CA1BDB0BCDBFDEBF099463
:102160002A88398848885F846E847D848C849B8427
:10217000AA84B984C884DF80EE80FD800C811B8135
:10218000AA81B981CE0FD11DCDBFDEBFED0108956B
:04219000F894FFCFF1
:102194005041545445524E202564204445544543EF
:1021A400544544210A0D00446574656374696F6E77
:1021B4002076616C75653A2025640A0D00466169D4
:1021C4006C65640A0D004552524F523A20434D4407
:1021D40025640A0D00456E73757265207468617418
:1021E40020796F75722053442D6361726420697382
:1021F4002070726F7065726C7920696E7365727489
:10220400656420616E6420726573746172742074F5
:0D22140068652073797374656D2E0A0D00E6
:102221000000912920008000707100016900000008
:1022310000007A00000000757700000000004800EF
:102241000001AA8741000000000040000000009545
:10225100FFFFFFFFFFFF1F0A270A390A590BCF0AA9
:102261008F0B360A440A330A2C0B470A4E0ABF0A5F
:0A227100550A0F0A390B9D0A5C0A9A
:00000001FF
